:10000000582E0020A96200002D63000079620000D4
:1000100000000000000000000000000000000000E0
:100020000000000000000000000000002D63000040
:1000300000000000000000002D6300002D630000A0
:100040002D6300002D6300002D6300002D63000070
:100050001D5100002D6300002D6300002D63000082
:100060002D630000D94F0000ED4F0000015000004B
:1000700015500000295000003D500000A141000033
:10008000B5410000C941000055420000694200002E
:100090007D4200002D6300002D6300002D630000F1
:1000A0002D6300002D6300002D6300002D63000010
:1000B00010B5064C2378002B07D1054B002B02D03E
:1000C000044800E000BF0123237010BDAC080020ED
:1000D00000000000B4E0000008B5084B002B03D07E
:1000E0000748084900E000BF07480368002B00D11B
:1000F00008BD064B002BFBD09847F9E70000000035
:10010000B4E00000B0080020B4E0000000000000EF
:1001100080B584B000AF021CFB1D1A700F23FB18C2
:10012000FA1D1278D2091A700E23FB18FA1D1278E4
:1001300052091A700D4BBB600F23FB181B78002B64
:100140000FD10F23FB181B789B0010229446BC4450
:100150006344083B1A680E23FB181B78DB01D31895
:1001600000E00023181CBD4604B080BD00440041DF
:1001700080B582B000AF021CFB1D1A70064BFA1D41
:100180001278111C1F220A40012191400A1C1A609A
:10019000BD4602B080BDC04600E100E080B582B03F
:1001A00000AF021CFB1D1A70074AFB1D1B78191CAF
:1001B0001F230B40012199400B1C191C8023D15097
:1001C000BD4602B080BDC04600E100E080B582B00F
:1001D00000AF78607B6800221A607B6800225A605A
:1001E0007B6801221A727B6801225A727B680022A6
:1001F0009A727B680222DA72BD4602B080BDC046A8
:1002000080B582B000AF021CFB1D1A70FB1D1B786D
:10021000181C034B9847031C181CBD4602B080BD38
:100220001101000080B584B000AF021CFB1D1A70E4
:10023000FB1D1B78181C0B4B9847031CFB60FB1D18
:100240001B781F22134001229A40131CBB60FB68DD
:100250001B6ABA6813405A1E9341DBB2181CBD4694
:1002600004B080BD0102000080B584B000AF7860AA
:100270007B681B68FB60FB68DB695A1E9341DBB23D
:10028000181CBD4604B080BD80B582B000AF786058
:10029000C0467B68181C034B9847031EF9D1BD4626
:1002A00002B080BD6902000080B582B000AF786006
:1002B0007B688022D2051A607B6800225A607B68C6
:1002C000FF221A817B6800229A727B680022DA7210
:1002D0007B68962292011A627B682422012199543C
:1002E0007B682522012199547B682622002199549C
:1002F0007B682722002199547B6800229A627B68E0
:1003000088225203DA607B682C22002199547B6892
:100310002D22002199547B6800221A637B680022F9
:100320005A637B6800229A637B680022DA637B68E9
:1003300000225A617B6800221A827B680022DA76EA
:100340007B6800221A767B6800221A777B6800227D
:100350005A767B6813229A767B6800225A77BD46CC
:1003600002B080BD80B584B000AF78607B681B6848
:10037000FB607B681B68181C094B9847031C181C02
:10038000084B98477B68181C074B9847FB681B680D
:1003900002221A43FB681A60BD4604B080BDC04605
:1003A000854F0000710100008902000080B584B013
:1003B00000AF78607B681B68FB607B681B68181C5B
:1003C000094B9847031C181C084B98477B68181C5E
:1003D000074B9847FB681B68022293431A1CFB6873
:1003E0001A60BD4604B080BD854F00009D0100002D
:1003F0008902000080B582B000AF78600A1CFB1C47
:100400001A707B6831229B5CD9B2FB1C1B780122DD
:100410009A40131CDBB20A1C1343DBB2D9B27B68CF
:1004200031229954BD4602B080BDC04680B584B02B
:1004300000AFF860B9607A60F968BA687B68081C38
:10044000111C1A1C054B9847031E01D1012300E023
:100450000023181CBD4604B080BDC046B54700004F
:1004600080B582B000AF78600A1CFB1C1A70FB1CC0
:100470001B789BB27A68101C191C034B9847031C0D
:10048000181CBD4602B080BDFD3C000080B584B0A4
:1004900000AF786039607A680E23FB18101C191CB5
:1004A000054B98470E23FB181B88DAB23B681A707D
:1004B000BD4604B080BDC046493D000080B584B053
:1004C00000AFF860B9607A60104BFA681A60104BA0
:1004D000104A1A60104B114A1A60F968BA687B68B2
:1004E000081C111C1A1C0E4B98470E4B1B689B686E
:1004F000181C00210C4B98470A4B1B685B68181CA2
:100500000021094B9847BD4604B080BD380E00203D
:10051000340E002061040000300E00208D04000025
:100520002D040000380400203171000080B582B035
:1005300000AF7860154B1B78002B18D0144B1B882C
:10054000012B07D1134B1B687A68101C191C124B26
:10055000984709E00F4B1A680D4B1B887968081CF7
:10056000111C1A1C0D4B9847084B00221A700C4B9B
:100570001B78002B06D00B4B1A780B4B1A70084BCC
:1005800000221A70BD4602B080BDC046360D002064
:10059000340D0020380D0020493D0000D93D0000F9
:1005A000420D0020410D0020400D002080B582B09A
:1005B00000AF78600C4B01221A707B685A6A0B4BB3
:1005C0001B885B42D2180A4B1A600A4B1B78002B1F
:1005D00006D0094B1A78094B1A70064B00221A7084
:1005E000BD4602B080BDC046210D0020340D002064
:1005F0003C0D0020420D0020410D0020400D002048
:1006000080B586B000AFF860B960BB1D1A801723B3
:10061000FB1800221A70BB1D1B88DAB21623FB18C8
:10062000013A1A702BE01723FB181B78BA68D2180E
:100630001523FB1812781A701723FB181B78BA6859
:10064000D3181622BA181278B9688A1812781A7054
:100650001623FB181B78BA68D3181522BA1812781B
:100660001A701723FB181A781723FB1801321A7017
:100670001623FB181A781623FB18013A1A70172351
:10068000FA181623FB1812781B789A42CBD3F96814
:10069000BA68BB1D1B88081C111C1A1C024B98470A
:1006A000BD4606B080BDC0467D3D000080B584B02B
:1006B00000AF78600A1CFB1C1A700F23FB18002285
:1006C0001A70D94B1B78042B00D912E29A00D74B31
:1006D000D3181B689F46FB1C1B78002B3AD1D44BC8
:1006E0001B88012B36D1D34B1B681B78122B1AD1D8
:1006F000CD4B01221A70D04BFF221A80CF4BCE4A2D
:100700001A60CB4B01221A80CD4B01221A70CD4BBF
:100710005B221A70CB4B1B789BB27A68101C191C99
:10072000C94B98472EE0C54BC34A1A60C04B012203
:100730001A80C34B01221A70BE4B1B681A78C14B3A
:100740001A70C04B1B789BB27A68101C191CBE4BE8
:10075000984717E0B84BFF221A80B84BB64A1A6088
:10076000B34B01221A80B64B01221A70B54BEA2214
:100770001A70B44B1B789BB27A68101C191CB24BD0
:100780009847BAE1B9E1FB1C1B78002B5AD1A94B61
:100790001B681B78A52B12D1A74BBB60A24B022272
:1007A0001A70BB680433FF221A70A14B01221A8011
:1007B0007A68A64B101C191CA54B984742E09D4B2C
:1007C0001B681B78122B17D19E4B5B221A709A4B19
:1007D000FF221A80994B984A1A60954B01221A8081
:1007E000974B01221A70974B1B789BB27A68101CAA
:1007F000191C954B984725E0964B1B78002B17D179
:10080000904B5A221A708C4BFF221A808B4B8A4ACB
:100810001A60874B01221A80894B01221A70894B7A
:100820001B789BB27A68101C191C874B984709E00B
:100830007F4B01221A807A687F4B101C191C844B55
:1008400098475AE159E1FB1C1B78002B12D1764BDB
:1008500003221A70774B1A687F4B1A60744B0B2275
:100860001A807B685B6A7A68101C191C0B227B4B10
:10087000984742E16C4B01221A70704B6E4A1A6025
:100880006F4B01221A706A4B01221A806D4BEA22CB
:100890001A706C4B1B789BB27A68101C191C6A4B3F
:1008A00098472AE1FB1C1B78002B00D08DE00E231B
:1008B000FB1800221A7014E0674B1A680E23FB180D
:1008C0001B78D31819780F23FB180F22BA18127847
:1008D0004A401A700E23FB181A780E23FB180132B7
:1008E0001A700E23FB181B780B2BE5D90F23FB186E
:1008F0001B78002B1AD04C4B01221A704E4BFF2252
:100900001A804E4B4C4A1A60494B01221A804C4BBC
:1009100001221A704B4B5A221A704A4B1B789BB219
:100920007A68101C191C484B98476AE04A4B1B68B0
:100930004B4A101C191C0C224A4B9847484B1B6809
:10094000FF221340032B1ED1374B04221A70444B55
:100950001B681B0C9AB2444B1A80394B01221A7047
:10096000364B424A1A60404B1A88314B1A80354B3D
:10097000AC221A70334B1B789BB27A68101C191C7E
:10098000314B98473DE0364B1B68FF221340012B4B
:1009900006D1374B01221A70234B05221A7030E022
:1009A000334B01221A70334B01221A70324B05224D
:1009B0001A70244BAC221A70224B1B789BB27A68B7
:1009C000101C191C204B984797E0FB1C1B78022B2E
:1009D00017D1154B01221A70184B174A1A60184B81
:1009E00001221A70124B01221A80164BEA221A7049
:1009F000144B1B789BB27A68101C191C124B984739
:100A00007BE07AE0FB1C1B78002B37D1084B1A885F
:100A1000154B1B889A4231D1154B01221A70024B9B
:100A200005221A7064E0C046400D0020B8D30000D3
:100A3000340D00203C0D002000090020380D00205E
:100A4000360D0020100D0020FD3C000004090020A0
:100A5000493D0000430D0020240D0020D93D000039
:100A6000280D0020816F0000440D00201009002097
:100A7000200D0020420D0020410D0020FB1C1B78A2
:100A8000022B1AD11E4B01221A701E4BEA221A7039
:100A90001D4BFF221A801D4B01221A801C4B1A4A43
:100AA0001A601C4B01221A70164B1B789BB27A6895
:100AB000101C191C184B98471AE0114B01221A7090
:100AC000104B5A221A70104BFF221A800F4B012232
:100AD0001A800F4B0C4A1A600E4B01221A70094BF8
:100AE0001B789BB27A68101C191C0B4B984704E0CA
:100AF00003E0034B01221A70C046BD4604B080BD1E
:100B0000400D0020100D002000090020340D0020B1
:100B1000380D0020360D0020FD3C000080B592B05D
:100B200000AF78600823FB18181C264B9847082351
:100B3000FB1880225203DA600823FB18224A1A634A
:100B40000823FB18214A5A630823FB18012252424A
:100B50009A630823FB1801225242DA630823FB1828
:100B60007A681A621A4A1B490823FB18101C1A1CBF
:100B7000194B9847164A194B101C191C0122184B87
:100B80009847134A174B101C191C0022144B984706
:100B90000F4B181C0121144B98470D4B181C0021BA
:100BA000114B98470A4B181C104B9847104B0122C9
:100BB0001A80074A0F4B101C191C0F4B9847BD4653
:100BC00012B080BDA902000002001600020017004A
:100BD000C808002000140042BD040000AD0500005C
:100BE000B53C00002D050000F50300006503000082
:100BF000340D002000090020493D000090B583B06D
:100C000000AFFC1D8C4B9847031C2370FB1D1B7809
:100C10005BB2002B11D08949894ABC235B00081CB8
:100C2000111C1A1C874B9847874B181C874B9847F9
:100C30000D20874B9847FB23F9E0F1E0854B1B78AB
:100C4000002B07D0834B00221A70834B181C002105
:100C5000824B9847824B1B78002B07D0804B002299
:100C60001A707D4B181C02217C4B98477D4B1B78DA
:100C7000002B00D1D4E07C4B1B78052B00D0CFE0BB
:100C80007A4B1B68FF2213400A2B00D9C4E09A005C
:100C9000774BD3181B689F46744B5B68181C754BC9
:100CA0009847031C3B603B68DAB2734B1A703B6891
:100CB0001B0ADAB2704B5A703B681B0CDAB26E4BEF
:100CC0009A703B681B0EDAB26B4BDA706B4B6C4A56
:100CD0001A606C4B01221A806B4B01221A70624B16
:100CE00001221A705C4A644B101C191C0422674BC9
:100CF000984792E05D4B5A685C4B9B68101C191C2E
:100D0000634B98475D4B5E4A1A605E4B01221A8026
:100D10005D4B01221A70584BAC221A70524B0122C3
:100D20001A70554B1B789BB24B4A101C191C594B1F
:100D3000984772E04D4B59684C4B1B681B0C564A48
:100D4000081C111C1A1C554B98474C4B4C4A1A60F6
:100D50004C4B01221A804C4B01221A70424B01224B
:100D60001A70424B1B681B0C9BB23B494A4A081C39
:100D7000111C1A1C4A4B98474FE03C4B59683B4B9F
:100D80001B681B0C444A081C111C1A1C454B984735
:100D90003A4B3B4A1A603B4B01221A803A4B0122E4
:100DA0001A70354BAC221A702F4B01221A70324B3D
:100DB0001B789BB2284A101C191C364B98472CE014
:100DC000294B01221A70384B01221A70224B181C31
:100DD000364B9847254B9B68181C354B98471CE0B1
:100DE0002920344B9847031C1A1C234B1A70234BA1
:100DF000234A1A60234B01221A80234B01221A70C6
:100E0000194B01221A701C4B1B789BB2124A101C02
:100E1000191C204B984700E0C046124B00221A7064
:100E2000254B1B78002B00D108E7FB1D1B785BB21C
:100E3000181CBD4603B090BDA5170000CCD3000020
:100E40003CD4000089700000E0D300001D71000058
:100E5000AD700000210D0020C8080020AD06000084
:100E6000220D0020200D0020400D0020280D002024
:100E700010D4000099190000100D0020380D00203A
:100E800000090020340D0020360D0020010600006E
:100E9000DD190000FD3C000010090020311A00009F
:100EA0007D3D0000351B0000430D0020AD03000018
:100EB0001D0B000025020000460D002090B585B0F6
:100EC00000AF0F23FB1800221A70124B9847E12342
:100ED0005B02181C104B9847104B98473B1C181C82
:100EE0000F4B98473B1C15221A603B1C00225A608E
:100EF0003B1C01221A723B1C0222DA723B1C0520A9
:100F0000191C084B98470F23FC18074B9847031CE4
:100F10002370E1E7816200001D0B000079100000E2
:100F2000CD01000025320000FD0B000080B584B02B
:100F300000AF021CFB1D1A700F23FB18FA1D12785C
:100F4000D2091A700E23FB18FA1D127852091A7072
:100F50000D4BBB600F23FB181B78002B0FD10F2309
:100F6000FB181B789B0010229446BC446344083B4A
:100F70001A680E23FB181B78DB01D31800E000234E
:100F8000181CBD4604B080BD0044004180B500AFD0
:100F9000034B01221A70BFF35F8F62B6BD4680BD5E
:100FA0000C00002080B582B000AF021CFB1D1A703F
:100FB000FB1D1B78181C034B9847031C181CBD46CF
:100FC00002B080BD2D0F000080B582B000AF786008
:100FD0007B6800221A707B6801225A707B680022AD
:100FE0009A70BD4602B080BD80B584B000AF021CCF
:100FF000FB1D1A70BB1D0A1C1A70FB1D1B78181CE8
:101000000C4B9847031CFB60FB1D1B781F221340F1
:1010100001229A40131CBB60BB1D1B78002B03D020
:10102000FB68BA689A6102E0FB68BA685A61BD461B
:1010300004B080BDA50F000080B582B000AF3B1D9D
:10104000181C0B4B98473B1D01221A703B1D0820B2
:10105000191C084B98473B1D0E20191C054B98473F
:101060003B1D0720191C034B9847BD4602B080BDAD
:10107000C90F00007953000080B500AF074B002274
:101080001A60074B9847074B9847074B9847074B01
:10109000984700235BB2181CBD4680BD480D002058
:1010A00039100000052F0000B11000008D0F000066
:1010B00080B500AF0E2000210C4B9847082000217E
:1010C0000A4B984764200A4B98470E200121074B92
:1010D00098470A20064B984708200121034B984760
:1010E0006420034B9847BD4680BDC046E90F000011
:1010F000F510000080B582B000AF786002E00120FA
:10110000044B98477B685A1E7A60002BF7D1BD4686
:1011100002B080BD612F000080B584B000AF021C1A
:10112000FB1D1A700F23FB18FA1D1278D2091A70D2
:101130000E23FB18FA1D127852091A700D4BBB6072
:101140000F23FB181B78002B0FD10F23FB181B78E4
:101150009B0010229446BC446344083B1A680E234B
:10116000FB181B78DB01D31800E00023181CBD46D8
:1011700004B080BD0044004180B582B000AF021CC5
:10118000FB1D1A70FB1D1B78181C034B9847031C92
:10119000181CBD4602B080BD1911000080B582B098
:1011A00000AF78607B6800221A707B6801225A7059
:1011B0007B6800229A70BD4602B080BD80B584B0C5
:1011C00000AF021CFB1D1A70BB1D0A1C1A70FB1D10
:1011D0001B78181C0C4B9847031CFB60FB1D1B78ED
:1011E0001F22134001229A40131CBB60BB1D1B78B9
:1011F000002B03D0FB68BA689A6102E0FB68BA680A
:101200005A61BD4604B080BD7911000080B584B03C
:1012100000AF78607B681B68FB60FB68DB695A1E67
:101220009341DBB2181CBD4604B080BD80B582B0CE
:1012300000AF78607B6801221A707B6800225A60D8
:101240007B6800229A607B68C0229203DA607B6828
:1012500000221A747B6800225A747B6801229A74F7
:101260007B680122DA747B6800221A757B6824226D
:10127000002199547B681833181C00210C220A4B5A
:1012800098477B68094A9A617B6800229A627B686A
:101290000022DA627B6800221A637B6800225A63AC
:1012A000BD4602B080BDC046FD6F0000A0860100B3
:1012B00080B582B000AF78607B680A221A707B68C4
:1012C00000225A707B6800229A70BD4602B080BD31
:1012D00080B584B000AF786039603B681A787B686D
:1012E0001A703B685A787B685A703B689A787B68BA
:1012F0009A700C23FB18181C0B4B98470C23FB18F7
:1013000001221A707B681A780C23FB18101C191C18
:10131000064B98477B681B78181C0121044B9847A3
:10132000BD4604B080BDC0469D1100007953000049
:10133000BD11000080B584B000AF78607B681B6889
:10134000FB60C0467B68181C064B9847031EF9D10A
:10135000FB681B6802221A43FB681A60BD4604B092
:1013600080BDC0460D12000080B584B000AF78602B
:101370007B681B68FB60FB681B7EDBB21A1C0223C8
:1013800013405A1E9341DBB2181CBD4604B080BD09
:1013900080B584B000AF78607B681B68FB60FB6839
:1013A0001B7EDBB21A1C012313405A1E9341DBB291
:1013B000181CBD4604B080BD80B584B000AF786015
:1013C0007B681B68FB60FB681B7EDBB21A1C042376
:1013D00013405A1E9341DBB2181CBD4604B080BDB9
:1013E00080B584B000AF78600A1CBB1C1A807B6893
:1013F0001B68FB607B68181C0A4B9847031C1A1C6F
:1014000001235340DBB2002B01D0052306E0BB1CB7
:101410001B88DB05DA0DFB689A620023181CBD46A9
:1014200004B080BD9113000080B584B000AF786037
:1014300039607B681B68BB607B68181C1D4B984734
:10144000031C1A1C01235340DBB2002B01D01023D4
:101450002CE00F23FB1800221A70BB685B8B9BB239
:101460001A1C042313400BD00F23FB181E221A70E2
:10147000BB685B8B9BB2042213439AB2BB685A834E
:101480007B689B79012B08D1BB689B6A9BB2DB050B
:10149000DB0D9AB23B681A8005E0BB689B6ADBB241
:1014A0009AB23B681A800F23FB181B78181CBD46A4
:1014B00004B080BDB913000080B586B000AFF860FD
:1014C000B960BB1D1A801323FB1800221A70172362
:1014D000FB1800221A701623FB1800221A7014231E
:1014E000FB1800221A801023FB1800221A80FB68C8
:1014F000002B07D11323FB18FB601723FB180122D5
:101500001A700CE0BB68002B07D11323FB18BB60DB
:101510001623FB1801221A7001E0FA236CE0394A05
:10152000394B101C191C0122384B98474CE0FB68C2
:101530001A781423FB181A80C046324B181C344BFF
:101540009847031C1A1C01235340DBB2002BF4D133
:10155000C0462C4A1423FB181B88101C191C2D4B49
:101560009847031EF5D1C046264B181C2A4B9847B6
:10157000031C1A1C01235340DBB2002BF4D1C046DC
:10158000204A1023FB18101C191C244B9847031EDB
:10159000F6D11023FB181B88DAB2BB681A70BB1D8A
:1015A0001A88BB1D013A1A801623FB181B78002BE2
:1015B00002D1BB680133BB601723FB181B78002BDB
:1015C00002D1FB680133FB60BB1D1B88002BAED131
:1015D000C0460C4B181C124B9847031C1A1C0123C5
:1015E0005340DBB2002BF4D1064A074B101C191CE8
:1015F0000022064B984700235BB2181CBD4606B07C
:1016000080BDC046CC0D0020C80D0020F53A00007A
:1016100091130000E1130000B91300002914000029
:101620006913000080B592B000AF78604723FB18C3
:1016300000221A700823FB18181C264B9847082311
:10164000FB1806221A70244A0823FB18101C191CC8
:10165000224B98470C23FB18181C214B98470C234E
:10166000FB1880225202DA600C23FB181D4A9A6292
:101670000C23FB1801225242DA620C23FB181A4A8F
:101680001A630C23FB18194A5A630C23FB18002217
:101690001A750C23FB18164A9A61164A16490C2330
:1016A000FB18101C1A1C154B9847031E01D0FA2377
:1016B0000BE0104B181C124B9847124B9847012017
:1016C000114B98474723FB181B785BB2181CBD468B
:1016D00012B080BDB1120000C80D0020D112000070
:1016E0002D12000003000C0003002A0003002B0051
:1016F00080969800CC0D002000180042013A0000AE
:1017000035130000B1100000F510000090B585B051
:1017100000AF021C3960FB1D1A700F23FB1800225A
:101720001A70FB1D1B78032B11D13B68BB60BB6893
:101730001968BB685A68BB681B890F203C18081CD5
:10174000111C1A1C104B9847031C237014E00F2324
:10175000FB18FF221A700D490D4A1423FF33081C91
:10176000111C1A1C0B4B98470B4B181C0B4B984722
:101770000D200B4B9847C0460F23FB181B785BB21C
:10178000181CBD4605B090BDB91400005CD4000023
:1017900084D400008970000070D400001D71000026
:1017A000AD70000090B583B000AFFB1D00221A7031
:1017B000FC1D094B9847031C2370FB1D1B785BB273
:1017C000002B00D001E0054B9847FB1D1B785BB256
:1017D000181CBD4603B090BD091C0000E1170000B5
:1017E00090B583B000AFFC1D284A3B1C101C191C8F
:1017F000274B9847031C2370FB1D1B785BB2002B03
:1018000001D0FA233CE03B688022520013433B6046
:101810003B68FC1D1D4A101C191C1E4B9847031CDD
:101820002370FB1D1B785BB2002B01D0FA2327E04D
:10183000FC1DD0235A013B1C101C191C144B98474B
:10184000031C2370FB1D1B785BB2002B01D0FA2315
:1018500016E03B688022520213433B603A68FC1D4D
:10186000D0235B01181C111C0A4B9847031C2370E2
:10187000FB1D1B785BB2002B01D0FA2300E0002394
:101880005BB2181CBD4603B090BDC04608140000F2
:10189000B9190000DD19000080B582B000AF284BF7
:1018A0001B68002B45D180235A01254B101C191CA5
:1018B000244B9847031E04D0214B00221A600023BA
:1018C00039E0214A3B1D101C191C1E4B9847031E72
:1018D00004D01B4B00221A6000232CE0184B1B681D
:1018E0001A4A934206D17B68012B15D0144B184A33
:1018F0001A6011E0124B1B68164A93420CD17B68A8
:10190000032B09D07B68042B03D10D4B124A1A60BC
:1019100002E00B4B114A1A60094B1B68104A1A402F
:10192000074B1A60064B1B68A022D2021A43044BD5
:101930001A60034B1B68181CBD4602B080BDC04630
:101940004C0D0020B9190000F4130000A002100093
:10195000A1021000B0021000B1021000B20210008B
:10196000FFFFF0FF90B585B000AF78600F23FB1844
:1019700000221A700F23FC187B68181C054B98472F
:10198000031C23700F23FB181B785BB2181CBD4689
:1019900005B090BD2516000080B582B000AF78601C
:1019A0007B68181C034B9847031C181CBD4602B0EB
:1019B00080BDC046552D000080B582B000AF786074
:1019C00039607A683B68101C191C034B9847031C4C
:1019D000181CBD4602B080BD792D000080B582B0D4
:1019E00000AF786039607A683B68101C191C034BA3
:1019F0009847031C181CBD4602B080BDC92D0000CD
:101A000080B584B000AFF860B960BB1D1A80F9687A
:101A1000BA68BB1D1B88081C111C1A1C034B984775
:101A2000031C181CBD4604B080BDC046192E000022
:101A300080B586B000AFF860B9607A602F4B1A8825
:101A40001023FB18083A1A8000237B611323FB182C
:101A500000221A701023FB181A887B689A4215D34B
:101A6000BA687B69D2187B689BB2F968081C111CA4
:101A70001A1C234B9847031CDAB21323FB181B785C
:101A8000D318DAB21323FB181A702FE0BA687B69F7
:101A9000D218F9681023FB181B88081C111C1A1C8B
:101AA000174B9847031CDAB21323FB181B78D31883
:101AB000DAB21323FB181A701323FB181B785BB2DE
:101AC000002B00D012E01023FB181B887A68D31A71
:101AD0007B601023FB181B887A69D3187B61102365
:101AE000FB181B88FA68D318FB60B3E71323FB18B5
:101AF0001B785BB2181CBD4606B080BD00000020FC
:101B0000011A000080B584B000AFF860B960BB1D59
:101B10001A80F968BA68BB1D1B88081C111C1A1CA6
:101B2000034B9847031C181CBD4604B080BDC0463B
:101B3000752E000080B586B000AFF860B9607A609D
:101B40002F4B1A881023FB18083A1A8000237B6158
:101B50001323FB1800221A701023FB181A887B68C5
:101B60009A4215D3BA687B69D2187B689BB2F96830
:101B7000081C111C1A1C234B9847031CDAB21323B0
:101B8000FB181B78D318DAB21323FB181A702FE056
:101B9000BA687B69D218F9681023FB181B88081CE7
:101BA000111C1A1C174B9847031CDAB21323FB189D
:101BB0001B78D318DAB21323FB181A701323FB18FF
:101BC0001B785BB2002B00D012E01023FB181B889F
:101BD0007A68D31A7B601023FB181B887A69D318A4
:101BE0007B611023FB181B88FA68D318FB60B3E7EE
:101BF0001323FB181B785BB2181CBD4606B080BDD2
:101C000000000020051B000090B583B000AFFB1D55
:101C100000221A70FC1D00201A4B9847031C2370E9
:101C2000FB1D1B785BB2002B0ED0174A174B101C04
:101C3000191C7822164B9847164B181C164B9847C0
:101C40000D20164B984715E0154B9847154B181C5F
:101C50000F4B9847144B9847021C144B181C111C2F
:101C60000B4B98470D200D4B9847114B181C00212A
:101C7000104B9847FB1D1B785BB2181CBD4603B088
:101C800090BDC0466519000094D40000CCD500007A
:101C900089700000A8D400001D710000AD70000024
:101CA000FD2B0000C4D4000099180000D0D400001F
:101CB00000030200DD19000080B586B000AF786037
:101CC0000A1CBB1C1A800C23FB1800221A600C2370
:101CD000FB187A685A600C23FB18BA1C12881A8108
:101CE0000C23FB180320191C034B9847031C181CDA
:101CF000BD4606B080BDC0460D17000080B586B059
:101D000000AF78600A1CBB1C1A800C23FB187A6891
:101D10001A600C23FB1800225A600C23FB18BA1C13
:101D200012881A810C23FB180320191C034B9847B7
:101D3000031C181CBD4606B080BDC0460D17000030
:101D400080B582B000AF021CFB1D1A70BB1D0A1CBF
:101D50001A70FB1D1B785A00BB1D1B785340034AA9
:101D6000D35C181CBD4602B080BDC046E8D500005B
:101D700090B585B000AFB9607A600F23FB18021CE4
:101D80001A700EE0BB685A1CBA601A780F23FC1850
:101D90000F23FB181B78181C111C084B9847031CB9
:101DA00023707B685A1E7A60002BEBD10F23FB183F
:101DB0001B78181CBD4605B090BDC046411D0000F3
:101DC00090B589B000AFB9607A603B600F23FB1813
:101DD000021C1A701F23FB1805221A701E23FB1801
:101DE00001221A701423FB180F22BA1812781A70E5
:101DF0000F23FB181B78C13B0E2B00D91BE19A0067
:101E0000B74BD3181B689F46BB681B0CDAB2142370
:101E1000FB185A70BB681B0ADAB21423FB189A70BD
:101E2000BB68DAB21423FB18DA701F23FB180522F3
:101E30001A7005E1BB681B0ADAB21423FB185A704A
:101E40003023FB181B78002B09D01423FB185B7878
:101E5000802252421343DAB21423FB185A70BB6833
:101E6000DAB21423FB189A701423FB180022DA70DC
:101E70001F23FB1805221A70E2E01423FB1800222E
:101E80005A701423FB1800229A701423FB180022A6
:101E9000DA701F23FB1805221A70D1E01423FB18F7
:101EA00000225A701423FB1800229A701423FB1886
:101EB0000022DA701F23FB1805221A70C0E01423D9
:101EC000FB18FF225A701423FB18FF229A70142368
:101ED000FB18FF22DA701F23FB1805221A70AFE0EF
:101EE000BB681B0CDAB21423FB185A70BB681B0AC0
:101EF000DAB21423FB189A70BB68DAB21423FB1809
:101F0000DA703B681B0ADAB21423FB181A713B68BB
:101F1000DAB21423FB185A711F23FB1807221A7018
:101F20008EE0BB681B0CDAB21423FB185A70BB6836
:101F30001B0ADAB21423FB189A70BB68DAB21423B6
:101F4000FB18DA703B681B0CDAB21423FB181A7109
:101F50003B681B0ADAB21423FB185A713B68DAB2E9
:101F60001423FB189A711F23FB1808221A7067E0CC
:101F7000BB681B0ADAB21423FB185A703023FB1813
:101F80001B78002B09D01423FB185B788022524267
:101F90001343DAB21423FB185A70BB68DAB2142365
:101FA000FB189A707B681B0EDAB21423FB18DA70E8
:101FB0007B681B0CDAB21423FB181A717B681B0AAE
:101FC000DAB21423FB185A717B68DAB21423FB18B7
:101FD0009A711F23FB1808221A7031E0BB681B0C92
:101FE000DAB21423FB185A70BB681B0ADAB2142346
:101FF000FB189A70BB68DAB21423FB18DA707B689E
:102000001B0EDAB21423FB181A717B681B0CDAB2B0
:102010001423FB185A717B681B0ADAB21423FB18CD
:102020009A717B68DAB21423FB18DA711F23FB184C
:1020300009221A7004E01E23FB1800221A70C04601
:102040001E23FB181B785BB2002B40D0254B1B785E
:10205000002B15D11F23FB181B785C1E1F23FB18B8
:102060001B78013B1A1C1423FB187F20191C1E4BE4
:102070009847031CDB18DAB21423FB181A5506E044
:102080001F23FB181F22BA181278013A1A701F2357
:10209000FB181B789BB21422BA18101C191C134B86
:1020A0009847031E13D01249124A2023FF33081CFD
:1020B000111C1A1C104B9847104B181C104B9847BA
:1020C0000D20104B98471E23FB1800221A701E2368
:1020D000FB181B785BB2181CBD4609B090BDC0460A
:1020E000A0DB0000500D0020711D0000FD1C000051
:1020F000E8D60000DCDB000089700000FCD60000A0
:102100001D710000AD70000080B584B000AF021CEE
:10211000FB1D1A700F23FB1801221A70FB1D1B7880
:10212000CF2B07D0FB1D1B78C52B03D0FB1D1B78C5
:10213000C62B0CD10D23FB18181C01213B4B9847D3
:10214000031E04D00F23FB1800221A7065E00E2333
:10215000FB180A221A700D23FB18181C0121334B9F
:102160009847031E14D03249324A9F235B00081C53
:10217000111C1A1C304B9847304B181C304B984799
:102180000D20304B98470F23FB1800221A7044E0B3
:102190000D23FB181B78FA1D12789A420BD00E23E0
:1021A000FB181A78D3B2013BD9B20E23FB18197071
:1021B00053B2002BCFDC0E23FB180A221A700D231A
:1021C000FB18181C0121194B9847031E14D01849FD
:1021D000184AA6235B00081C111C1A1C164B9847B2
:1021E000164B181C164B98470D20164B98470F237B
:1021F000FB1800221A7010E00D23FB181B78002B2F
:102200000BD00E23FB181A78D3B2013BD9B20E23A0
:10221000FB18197053B2002BD1DC0F23FB181B786D
:102220005BB2181CBD4604B080BDC046B91C00009E
:10223000E8D60000E4DB00008970000028D7000029
:102240001D710000AD70000080B586B000AF7860F1
:10225000081C111CBB1C021C1A807B1C0A1C1A7057
:102260001123FB1801221A701423FB1800221A8074
:10227000BB1C1A8880239B019A4205D81223FB18A5
:10228000BA1C12881A8004E01223FB1880229201E3
:102290001A801623FB180A221A800B23FB18181C1D
:1022A00001215F4B9847031E14D05E495E4AB72355
:1022B0005B00081C111C1A1C5C4B98475C4B181CDB
:1022C0005C4B98470D205C4B98471123FB1800226C
:1022D0001A7015E00B23FB181B781B09DBB21A1CC4
:1022E0000F2313400F2B00D10AE01623FB181B8885
:1022F0009AB2013A91B21622BA181180002BCCD1B1
:102300001123FB181B785BB2002B00D180E0162351
:10231000FB1800229B5E002B19DC4249424ABD2378
:102320005B00081C111C1A1C404B98470B23FB1820
:102330001B781A1C414B181C111C3C4B98470D2054
:102340003D4B98471123FB1800221A7060E01423BC
:10235000FB1800229B5E7A68D2181223FB181B8898
:10236000101C191C2E4B9847031E14D02D492E4AC1
:102370008423FF33081C111C1A1C2C4B9847304B2C
:10238000181C2C4B98470D202B4B98471123FB18FA
:1023900000221A703CE07B1C1B78002B20D1294BBB
:1023A0001B78002B1CD10C23FB18181C02211C4B82
:1023B0009847031E14D01B491B4AC7235B00081C07
:1023C000111C1A1C194B98471F4B181C194B984786
:1023D0000D20194B98471123FB1800221A7017E0A3
:1023E0001423FB181A881223FB181B88D3189AB2DF
:1023F0001423FB181A801223FB181A88BB1CB91C63
:1024000009888A1A1A80BB1C1B88002B00D02FE772
:102410001123FB181B785BB2181CBD4606B080BDAB
:10242000B91C0000E8D60000F0DB00008970000055
:102430005CD700001D710000AD70000090D7000057
:10244000C0D70000500D0020F0D7000080B586B046
:1024500000AF78600A1CBB1C1A801323FB180122F2
:102460001A700C23FB1800221A801623FB18002276
:102470001A80BB1C1A8880239B019A4205D814231A
:10248000FB18BA1C12881A8004E01423FB1880225F
:1024900092011A801123FB18F0221A701623FB18E0
:1024A00000229B5E002B0FD1BB1C1A8880239B014E
:1024B0009A4204D81223FB1803221A7013E0122345
:1024C000FB1801221A700EE0BB1C1A8880239B01A6
:1024D0009A4204D81223FB1803221A7003E0122335
:1024E000FB1802221A701123FB181A781223FB180A
:1024F0001B781343DAB21123FB181A701123FB184F
:10250000181C01213E4B9847031E14D03D493E4AFA
:10251000C023FF33081C111C1A1C3C4B98473C4B32
:10252000181C3C4B98470D203B4B98471323FB1836
:1025300000221A705CE01623FB1800229B5E7A686A
:10254000D2181423FB181B88101C191C2C4B9847FD
:10255000031E14D02B492C4AE4235B00081C111CD9
:102560001A1C2A4B98472D4B181C2A4B98470D20B4
:10257000294B98471323FB1800221A7038E0284B88
:102580001B78002B1CD10C23FB18181C02211C4BA0
:102590009847031E14D01B491B4AE9235B00081C03
:1025A000111C1A1C194B98471E4B181C194B9847A5
:1025B0000D20194B98471323FB1800221A7017E0BF
:1025C0001623FB181A881423FB181B88D3189AB2F9
:1025D0001623FB181A80BB1CB91C1422BA180988D0
:1025E00012888A1A1A80BB1C1B88002B00D040E777
:1025F0001323FB181B785BB2181CBD4606B080BDC8
:10260000FD1C0000E8D6000000DC0000897000001E
:1026100024D800001D710000AD7000005CD80000DF
:10262000500D002090D80000B0B586B002AF7860A1
:1026300039600D23FB1801221A700F23FB18C922E1
:102640001A700E23FB1800221A707B68302B08D8F2
:102650000F23FB18C3221A700E23FB1801221A70D5
:1026600007E00F23FB18C9221A700E23FB18002263
:102670001A700D23FC180F23FB18187879683A6834
:102680000E23FB181B7800930423274DA847031C37
:1026900023700D23FB181B785BB2012B12D0234A49
:1026A000234B244C101C191C221C234B9847234AF3
:1026B0007B68101C191C204B98470D20204B984715
:1026C00000232CE00D23FC180F23FB181B78181C8B
:1026D0001C4B9847031C23700D23FB181B785BB21F
:1026E000012B1BD01149124A82239B00081C111C8C
:1026F0001A1C114B9847144A7B68101C191C0E4B6E
:1027000098470D200E4B984700230093CF200021BF
:1027100000220023044CA047002300E001235BB209
:10272000181CBD4604B0B0BDC11D0000E8D60000B5
:1027300010DC00000202000089700000C8D8000010
:10274000AD70000009210000F4D80000B0B588B0D9
:1027500002AFF860B960BB1D1A801723FB18C722AF
:102760001A70BB1D1D881623FC181723FB18197837
:10277000FA6800230093081C111C00222B1C3B4DFF
:10278000A847031C23701623FB181B785BB2012B90
:1027900012D0374A374B384C101C191C221C374BAF
:1027A0009847374AFB68101C191C344B98470D207A
:1027B000344B9847002354E01623FC181723FB18CA
:1027C0001B78181C304B9847031C23701623FB18EA
:1027D0001B785BB2012B1BD02549264A8B239B001B
:1027E000081C111C1A1C254B9847284AFB68101C12
:1027F000191C224B98470D20224B98470023009329
:10280000CF20002100220023184CA047002328E0FD
:102810001623FC18BA68BB1D1B88101C191C1C4B06
:102820009847031C23701623FB181B785BB2012BFF
:1028300016D00F4A0F4B174C101C191C221C0F4BA3
:102840009847154B181C154B98470D200D4B984772
:1028500000230093CF20002100220023034CA04737
:1028600001235BB2181CBD4606B0B0BDC11D0000FF
:10287000E8D6000020DC000026020000897000007D
:102880002CD90000AD700000092100005CD90000C7
:102890004D2400003D02000094D900001D7100008D
:1028A000B0B586B002AF786039600D23FB18012205
:1028B0001A700F23FB18CA221A700E23FB1800226D
:1028C0001A707B68FF2B08D80F23FB18C4221A70DC
:1028D0000E23FB1801221A7007E00F23FB18CA22EF
:1028E0001A700E23FB1800221A700D23FC180F23F8
:1028F000FB1819787A680E23FB181B780093081CC4
:10290000111C00220423484DA847031C23700D23EB
:10291000FB181B785BB2012B13D04449444A972320
:102920009B00081C111C1A1C424B9847424A7B68AA
:10293000101C191C3F4B98470D20404B9847002313
:102940006DE00D23FC180F23FB181B78181C3C4B63
:102950009847031C23700D23FB181B785BB2012BD7
:102960001AD0324A324B374C101C191C221C314BE6
:102970009847354A7B68101C191C2E4B98470D2030
:102980002E4B984700230093CF20002100220023E4
:10299000254CA047002342E00D23FC180823FA1819
:1029A0000E23FB181B78101C04211A1C274B984778
:1029B000031C23700D23FB181B785BB2012B18D06E
:1029C0001A4A1B4B224C101C191C221C194B9847ED
:1029D000204B181C204B98470D20184B984700237C
:1029E0000093CF200021002200230F4CA04700239A
:1029F00015E00823FB181B781A1C0823FB185B78CA
:102A00001B021A430823FB189B781B041A43082354
:102A1000FB18DB781B061A433B681A6001235BB284
:102A2000181CBD4604B0B0BDC11D0000E8D60000B2
:102A300030DC000089700000BCD90000AD700000DF
:102A40000921000062020000E8D9000049220000CC
:102A50006A0200001CDA00001D710000B0B588B0E9
:102A600002AFF860B960BB1D1A801723FB18C8229B
:102A70001A70BB1D1D881623FC181723FB18197824
:102A8000FA6800230093081C111C00222B1C3C4DEB
:102A9000A847031C23701623FB181B785BB2012B7D
:102AA00012D0384A384B394C101C191C221C384B98
:102AB0009847384AFB68101C191C354B98470D2065
:102AC000354B9847002356E01623FC181723FB18B4
:102AD0001B78181C314B9847031C23701623FB18D6
:102AE0001B785BB2012B1AD0264A274B2C4C101CAA
:102AF000191C221C264B98472A4AFB68101C191CDB
:102B0000234B98470D20244B984700230093CF2058
:102B10000021002200231A4CA04700232BE016239B
:102B2000FC18BA68BB1D1B88101C191C00221E4B08
:102B30009847031C23701623FB181B785BB2012BEC
:102B400018D0104A104B194C101C191C221C104B89
:102B50009847174B181C174B98470D200E4B98475A
:102B600000230093CF20002100220023044CA04723
:102B7000002300E001235BB2181CBD4606B0B0BDC7
:102B8000C11D0000E8D6000040DC00008B02000000
:102B9000897000003CDA0000AD70000009210000DF
:102BA000910200006CDA0000492200009B02000044
:102BB000A4DA00001D71000080B582B000AF0C4B9C
:102BC000181C0C4B9847031C7B607B687022934356
:102BD0007B607B68502213437B60C046044A7B685D
:102BE000101C191C044B9847BD4602B080BDC0465E
:102BF00024E80000552D0000C92D000090B583B0D9
:102C000000AF00233B60424B00221A70414A3B1C3C
:102C1000101C191C404B9847031E2BD13C4B012222
:102C20001A703E493E4AB7239B00081C111C1A1C0F
:102C30003C4B98473C4B181C3C4B98470D203C4B59
:102C40009847344A3B1C101C191C334B9847031EF1
:102C500010D1324A324B374C101C191C221C314BFC
:102C60009847354B181C314B98470D20304B9847EF
:102C7000002348E0264B1B78002B27D13B680C2211
:102C800093433B603B68702293433B603B68502218
:102C900013433B603B681F4A101C191C274B984785
:102CA000031E10D11D4A1E4B254C101C191C221C42
:102CB0001C4B9847234B181C1C4B98470D201C4B52
:102CC000984700231FE0124B01221A7080235A01FB
:102CD0003B1D101C191C104B9847031E10D10F4AA6
:102CE0000F4B194C101C191C221C0E4B9847174BEC
:102CF000181C0E4B98470D200D4B9847FA2302E005
:102D0000134B984700235BB2181CBD4603B090BD1F
:102D1000500D002024E80000A1280000E8D60000A3
:102D20004CDC000089700000CCDA00001D7100004E
:102D3000AD700000DF0200001CDB0000292600004F
:102D4000E902000048DB0000F30200007CDB000029
:102D5000B92B000080B584B000AF78607A680C238E
:102D6000FB18101C191C034B9847FB68181CBD4628
:102D700004B080BDA128000090B585B000AF786098
:102D800039600F23FC187A683B68101C191C0D4B26
:102D90009847031C23700F23FB181B785BB2012B91
:102DA00004D10F23FB1800221A7003E00F23FB1835
:102DB000FA221A700F23FB181B785BB2181CBD4651
:102DC00005B090BDA128000090B585B000AF786037
:102DD00039600F23FC187A683B68101C191C0D4BD6
:102DE0009847031C23700F23FB181B785BB2012B41
:102DF00004D10F23FB1800221A7003E00F23FB18E5
:102E0000FA221A700F23FB181B785BB2181CBD4600
:102E100005B090BD2926000090B587B000AFF860DE
:102E2000B960BB1D1A801723FC18F968BA68BB1D6E
:102E30001B88081C111C1A1C0D4B9847031C23707F
:102E40001723FB181B785BB2012B04D11723FB1847
:102E500000221A7003E01723FB18FA221A701723B6
:102E6000FB181B785BB2181CBD4607B090BDC0466E
:102E70005D2A000090B587B000AFF860B960BB1D57
:102E80001A801723FC18F968BA68BB1D1B88081C38
:102E9000111C1A1C0D4B9847031C23701723FB1899
:102EA0001B785BB2012B04D11723FB1800221A7088
:102EB00003E01723FB18FA221A701723FB181B785C
:102EC0005BB2181CBD4607B090BDC0464D27000040
:102ED00080B582B000AF78607B68002B0CD0084BC7
:102EE0007A685A60064B00229A60C046044B1A6802
:102EF00080235B021340F9D0BD4602B080BDC046BE
:102F000010E000E080B500AF0020104B9847021C95
:102F10000F4B1A600E4B1A680E4B101CFA229100D0
:102F20009847031C1A1C0A4B1A60094B1A68094B74
:102F3000101CFA2291009847031C1A1C064B1A60B9
:102F4000064B05221A60BD4680BDC046555E000096
:102F500004000020CD6300000800002010E000E025
:102F600080B582B000AF786004E0064B1B68181C87
:102F7000054B98477B685A1E7A60002BF5D1BD46F9
:102F800002B080BD04000020D12E000080B582B0C8
:102F900000AF78607B6880221A707B6800225A70CC
:102FA0007B6801229A707B680022DA70BD4602B00D
:102FB00080BDC04680B584B000AF021CFB1D1A70F6
:102FC0000F23FB18FA1D127852091A700F23FB18F1
:102FD0001B78002B0CD1094BBB600F23FB181B780F
:102FE0009B0010229446BC446344083B1B6800E0ED
:102FF0000023181CBD4604B080BDC0460018004028
:1030000080B582B000AF104B3B6000237B6012E0C4
:103010007B689B0008229446BC446344083B1B68C1
:103020005B78DBB2DBB25BB2002B01DA012306E096
:103030007B6801337B607B68002BE9D00023181C80
:10304000BD4602B080BDC0460018004080B582B0C9
:1030500000AF78607B6800221A70BD4602B080BD68
:1030600080B582B000AF021C3960FB1D1A70FB1DD9
:103070001B78012B0AD0022B0FD0002B14D10E4B42
:103080000D4A91693A680A439A610FE00A4B0A4A6D
:10309000D1693A680A43DA6108E0074B064A116AC7
:1030A0003A680A431A6201E0172300E00023181C63
:1030B000BD4602B080BDC0460004004080B582B06D
:1030C00000AF021CFB1D1A70064BFA1D1278111C72
:1030D0001F220A40012191400A1C1A60BD4602B01D
:1030E00080BDC04600E100E080B584B000AF2C4B4D
:1030F0007B60002040212B4B98473B1C181C2A4B1F
:1031000098473B1C00221A703B1C0520191C274BBA
:1031100098470520264B98470023FB6018E0FB6882
:103120009B0010229446BC4463440C3B1A68FB6825
:103130009B0010218C46BC4463440C3B1B681B78ED
:10314000DBB201210B43DBB21370FB680133FB6080
:10315000FB68002BE3D0C046164B9847031EFBD1FB
:103160000B23FB1800221A700DE00B23FB181A78B2
:10317000114B92000021D1500B23FB181A780B231E
:10318000FB1801321A700B23FB181B780F2BECD99C
:1031900004200A4B98470A4B9847BD4604B080BDAF
:1031A00000180040613000004D3000003D5F00001D
:1031B000815F000001300000D80D0020BD3000000C
:1031C000C531000080B582B000AF144B3B600023D6
:1031D0007B6018E07B689B0008229446BC446344F3
:1031E000083B1A687B689B0008218C46BC446344FA
:1031F000083B1B681B78DBB202210B43DBB2137068
:103200007B6801337B607B68002BE3D0C046044BB6
:103210009847031EFBD1BD4602B080BD0018004098
:103220000130000080B586B000AF021C3960FB1D84
:103230001A700823FB18181C364B98473B685B68CC
:10324000DAB20823FB181A700823FB1800225A7000
:103250003B681A7A0823FB189A703B681B68DAB23D
:103260000823FB18101C191C2B4B9847FB1D1B78BF
:10327000181C2A4B9847031C3B61FB1D1B78072237
:1032800013409B00FB603B68DB7A7B613B689B7A69
:10329000002B03D07B69082213437B61FB1D1B7845
:1032A000DB08DBB2181CFB1D1B78DB08DBB21A1C29
:1032B0003B6906329200D358FA680F2191400A1CEC
:1032C000D2431A40FB68796999400B1C1A43111CC0
:1032D0003B69821D9200D1503B685B7A002B0AD07B
:1032E0003B695A69FB1D1B78012199400B1C1A434D
:1032F0003B695A610AE03B695B69FA1D127801215A
:1033000091400A1CD2431A403B695A61BD4606B03F
:1033100080BDC0468D2F000021620000B52F000047
:1033200080B582B000AF78607B6880221A707B68BD
:1033300000225A707B6801229A707B680022DA7042
:10334000BD4602B080BDC04680B584B000AF021C4F
:10335000FB1D1A700F23FB18FA1D1278D2091A7080
:103360000E23FB18FA1D127852091A700D4BBB6020
:103370000F23FB181B78002B0FD10F23FB181B7892
:103380009B0010229446BC446344083B1A680E23F9
:10339000FB181B78DB01D31800E00023181CBD4686
:1033A00004B080BD0044004180B586B000AF021C6F
:1033B000FB1D1A70FB1D1B78181C194B9847031C2A
:1033C0007B61FB1D1B781F2213403B617A69402102
:1033D0003B69D3185B181B78DBB21A1C012313401E
:1033E00001D1802317E03B695B087A693021D3184B
:1033F0005B181B78DBB2FB603B690122134005D0F0
:10340000FB68F02213401B09DBB204E0FB68DBB26F
:103410000F221340DBB2181CBD4606B080BDC0466B
:103420004933000080B582B000AF021CFB1D1A704A
:10343000FB1D1B78181C034B9847031C181CBD462A
:1034400002B080BD4933000080B584B000AF021CDB
:10345000FB1D1A70BB1D0A1C1A70FB1D1B78181C63
:103460000C4B9847031CFB60FB1D1B781F2213406D
:1034700001229A40131CBB60BB1D1B78002B03D09C
:10348000FB68BA689A6102E0FB68BA685A61BD4697
:1034900004B080BD2534000080B582B000AF7860F4
:1034A0007B6800221A70BD4602B080BD80B582B034
:1034B00000AF021C3960FB1D1A70FB1D1B78012B2D
:1034C0000AD0022B0FD0002B14D10E4B0D4A91695C
:1034D0003A680A439A610FE00A4B0A4AD1693A688E
:1034E0000A43DA6108E0074B064A116A3A680A4360
:1034F0001A6201E0172300E00023181CBD4602B049
:1035000080BDC0460004004080B584B000AF786044
:103510007B681B68FB60FB681B7EDBB21A1C012307
:1035200013405A1E9341DBB2181CBD4604B080BD47
:1035300080B584B000AF78607B681B68FB60FB6877
:103540001B7EDBB21A1C042313405A1E9341DBB2CC
:10355000181CBD4604B080BD80B584B000AF786053
:103560000A1CBB1C1A807B681B68FB607B68181CEC
:103570000A4B9847031C1A1C01235340DBB2002B53
:1035800001D0052306E0BB1C1B88DB05DA0DFB68B8
:103590009A620023181CBD4604B080BD09350000A6
:1035A00080B584B000AF786039607B681B68BB6011
:1035B0007B68181C1D4B9847031C1A1C01235340A1
:1035C000DBB2002B01D010232CE00F23FB180022CC
:1035D0001A70BB685B8B9BB21A1C042313400BD080
:1035E0000F23FB181E221A70BB685B8B9BB2042250
:1035F00013439AB2BB685A837B689B79012B08D12D
:10360000BB689B6A9BB2DB05DB0D9AB23B681A80F4
:1036100005E0BB689B6ADBB29AB23B681A800F2355
:10362000FB181B78181CBD4604B080BD3135000066
:1036300090B593B000AF786039607B681B687B639E
:103640007B681B683B631C23FB18181C704B984756
:103650001C23FB1800225A703B689A6A0C23FB1843
:103660001A603B68DA6A0C23FB185A603B681A6BD5
:103670000C23FB189A603B685A6B0C23FB18DA602A
:103680004723FB1800221A702CE04723FB181A78F6
:103690000C23FB189200D3583B643B6C002B09D1E0
:1036A0003A6B4723FB181B78101C191C594B984781
:1036B000031C3B643B6C01330DD03B6CDAB21C2322
:1036C000FB181A703B6C1B0CDAB21C23FB18101C85
:1036D000191C514B98474723FB181A784723FB18AE
:1036E00001321A704723FB181B78032BCDD93B6896
:1036F0001A787B685A713B681A7C7B689A713B68C0
:103700009A7C7B68DA713B681A7D7B681A720A239F
:10371000FB1800221A800023FB630023BB633B6875
:103720001B78012B2BD17B681B68181C3B4B9847DF
:10373000031CFB62FB6A1433BB62BB6ADBB2181C5E
:10374000374B9847031C7B623B6899692323FC181D
:103750007A6A0A23FB18081C111C1A1C314B984763
:10376000031C23702323FB181B78002B01D0172385
:103770004AE00A23FB181B88DAB27B6B1A733B689A
:103780005B68FA6B1343FB633B689B68FA6B1343FC
:10379000FB633B68DB68FA6B1343FB633B681B7C92
:1037A0001A1CBB6B1343BB633B685B7C002B03D0D1
:1037B000FB6B80221343FB633B689B7C002B04D094
:1037C000BB6B802292021343BB633B68DB7C002B04
:1037D00004D0BB6B802292001343BB633B681B7D0C
:1037E000002B04D0BB6B802292011343BB637B6B25
:1037F0001A68FB6B1A437B6B1A607B6B5A68BB6B56
:103800001A437B6B5A600023181CBD4613B090BD51
:1038100021330000FD4C000021620000CD4E00006D
:1038200061600000314A000090B591B000AF78604F
:1038300039607B681B68FB627B681B68BB623B6806
:103840009A6A1023FB181A603B68DA6A1023FB1887
:103850005A603B681A6B1023FB189A603B685A6BDE
:103860001023FB18DA603F23FB1800221A7030E0A7
:103870003F23FB181A781023FB189200D358BB6320
:10388000BB6B002B09D1BA6A3F23FB181B78101CB5
:10389000191C574B9847031CBB63BB6B013300D10A
:1038A00010E0BB6B1B041C0CBB6B1B0CDBB2181CAD
:1038B000504B9847031C9C4204D07B6800221A603E
:1038C0001C2390E03F23FB181A783F23FB1801329A
:1038D0001A703F23FB181B78032BC9D91320464BC2
:1038E0009847031C7B6200237B6300233B633B6898
:1038F0001B78012B23D13B6899692323FC187A6A32
:103900000E23FB18081C111C1A1C3C4B9847031C67
:1039100023702323FB181B78002B01D0172362E0B0
:10392000FB6A1B7BDAB20E23FB181B88DBB29A42C0
:1039300001D01C2357E07B6B0C2213437B633B6855
:103940005B687A6B13437B633B689B687A6B1343BA
:103950007B633B68DB687A6B13437B633B681B7C50
:103960001A1C3B6B13433B633B685B7C002B03D00F
:103970007B6B802213437B633B689B7C002B04D0D2
:103980003B6B8022920213433B633B68DB7C002B42
:1039900004D03B6B8022920013433B633B681B7D4A
:1039A000002B04D03B6B8022920113433B637B6B63
:1039B000022213437B63FB6A1A687B6B9A420ED127
:1039C000FB6A5A683B6B9A4209D13B681A787B685C
:1039D0005A713B681A7C7B689A71002303E07B680C
:1039E00000221A601C23181CBD4611B090BDC046B1
:1039F000FD4C0000A933000061600000314A000066
:103A000080B58AB000AFF860B9607A60FB68BA68C8
:103A10001A60FB681B687B627B6A1B68022213408A
:103A200007D0FA687B68101C191C2A4B9847031CA6
:103A30004BE07B6A1B680122134001D0052344E060
:103A4000FB681B68181C244B9847031C3B623B6AAD
:103A50000233FB613B6A1433BB61FB6901229A406C
:103A6000131C0220191C1D4B98471423FB18181C0B
:103A70001B4B98477B6824229A5C1423FB181A700E
:103A8000BB69DAB21423FB18101C191C154B98479C
:103A9000BB69DBB2181C144B98477B6824229B5CE3
:103AA000181C0021114B98477B681B78012B05D10E
:103AB0007B6A1B680C221A437B6A1A60FA687B686F
:103AC000101C191C0A4B9847031C181CBD460AB051
:103AD00080BDC04629380000CD4E0000AD34000046
:103AE000993400003D5F0000815F0000714C0000D0
:103AF0003136000080B586B000AFF860B960FB1DBC
:103B00001A70FB685B79012B01D015235CE0FB6820
:103B10001B7A01225340DBB2002B54D0FB1D1B78D3
:103B2000002B4AD0BB685B78002B3FD0FB68181C89
:103B3000274B9847031C1A1C01235340DBB2002B70
:103B400007D0BB681B78181C0121224B984705231E
:103B50003AE0BB681B78181C00211E4B9847BB68D5
:103B60009B789BB2FA68101C191C1B4B9847FB688A
:103B7000DB7901225340DBB2002B24D0C046FB6826
:103B8000181C164B9847031C1A1C01235340DBB228
:103B9000002BF4D11623FB1800221A80FA68162392
:103BA000FB18101C191C0E4B98470CE0BB681B78C7
:103BB000181C0021074B984705E0BB681B78181CB0
:103BC0000121044B98470023181CBD4606B080BD58
:103BD0000935000049340000593500003135000036
:103BE000A135000080B584B000AF78607B681B68A9
:103BF000FB60FB68DB695A1E9341DBB2181CBD46B3
:103C000004B080BD80B582B000AF7860C0467B68EC
:103C1000181C034B9847031EF9D1BD4602B080BD66
:103C2000E53B000080B586B000AFF860B960BB1D11
:103C30001A80FB681B687B61FB68BA1D1288DA85F5
:103C4000FB68BA689A62FB683322052199547B6944
:103C500001229A75BD4606B080BDC04680B586B0CB
:103C600000AFF860B960BB1D1A80FB681B687B6100
:103C7000FB6800229A86FB68BA1D12889A85FB6849
:103C8000BA685A62FB683222052199547B69042282
:103C90009A75FB681B7A002B02D07B6920229A75EB
:103CA000FB685B7A002B02D07B6908229A75BD46BF
:103CB00006B080BD80B584B000AFF860B960FB1D70
:103CC0001A70FB1D1B78FA6802339B00D318BA6880
:103CD0005A60FB6830229B5CD9B2FB1D1B78012225
:103CE0009A40131CDBB20A1C1343DBB2D9B2FB6847
:103CF00030229954BD4604B080BDC04680B582B024
:103D000000AF78600A1CBB1C1A807B68DB8D9BB2FD
:103D1000002B01D0052310E07B68DB7901225340A2
:103D2000DBB2002B01D01C2307E07A68BB1C101CFF
:103D3000191C0122034B98470023181CBD4602B0F2
:103D400080BDC046253C000080B582B000AF7860E1
:103D500039607B689B8D9BB2002B01D0052307E067
:103D60007A683B68101C191C0122034B98470023FA
:103D7000181CBD4602B080BD5D3C000080B584B01B
:103D800000AFF860B960BB1D1A80BB1D1B88002BFB
:103D900001D1172319E0FB68DB8D9BB2002B01D00A
:103DA000052312E0FB68DB7901225340DBB2002BD4
:103DB00001D01C2309E0F968BA68BB1D1B88081CE8
:103DC000111C1A1C034B98470023181CBD4604B055
:103DD00080BDC046253C000080B584B000AFF860CF
:103DE000B960BB1D1A80BB1D1B88002B01D1172396
:103DF00019E0FB689B7901225340DBB2002B01D014
:103E00001C2310E0FB689B8D9BB2002B01D0052387
:103E100009E0F968BA68BB1D1B88081C111C1A1C34
:103E2000034B98470023181CBD4604B080BDC04614
:103E30005D3C000080B588B000AF021CFB1D1A700D
:103E4000FB1D1A78AE4B9200D358BB61BB691B684F
:103E50007B61BB69181CAB4B98477B691B7EDAB250
:103E60001223FB181A807B699B7DDBB29AB2122366
:103E7000FB181221791809880A401A80BB69302280
:103E80009B5CBA693121525C1340DAB21023FB18F3
:103E90001A801223FB181B88012213403FD0BB69F4
:103EA000DB8D9BB2002B37D0BB699B6A1B78DAB2E3
:103EB0001E23FB181A80BB699B6A5A1CBB699A6255
:103EC000BB695B79012B0DD1BB699B6A1B78DBB2A7
:103ED0009AB21E23FB1812021A80BB699B6A5A1CF5
:103EE000BB699A621E23FB181B88DB05DB0D9AB2A7
:103EF0007B691A85BB69DB8D9BB2013B9BB2BA69BA
:103F0000191CD185002B06D17B6901221A757B69AA
:103F100002229A7503E002E07B6901221A751223DE
:103F2000FB181B880222134011D07B6902221A75EC
:103F3000BB693322002199541023FB181B880122EE
:103F4000134004D0BB69DB68BA69101C9847122380
:103F5000FB181B880422134000D1D8E0BB699B8D5D
:103F60009BB2002B00D1CFE07B695B8B9BB2DAB2B6
:103F70000F23FB183F210A401A700F23FB181B78F0
:103F8000002B00D169E00F23FB181B78022213409D
:103F90000CD0BB6932221A2199547B695B8B9BB28E
:103FA000022213439AB27B695A834AE00F23FB181B
:103FB0001B78042213400CD0BB6932221E21995475
:103FC0007B695B8B9BB2042213439AB27B695A8351
:103FD00037E00F23FB181B78012213400CD0BB697C
:103FE0003222132199547B695B8B9BB201221343CC
:103FF0009AB27B695A8324E00F23FB181B781022A6
:1040000013400CD0BB693222422199547B695B8BEF
:104010009BB2102213439AB27B695A8311E00F239B
:10402000FB181B78202213400BD0BB6932224121A0
:1040300099547B695B8B9BB2202213439AB27B69B4
:104040005A831023FB181B88042213405FD0BB69DE
:104050005B69BA69101C984759E07B691B8D9AB25D
:104060000C23FB18D205D20D1A80BB695B6A0C22A7
:10407000BA181288D2B21A70BB695B6A5A1CBB6943
:104080005A62BB699B8E9BB201339AB2BB699A8616
:10409000BB695B79012B14D1BB695B6A0C22BA182E
:1040A0001288120A92B2D2B21A70BB695B6A5A1CA9
:1040B000BB695A62BB699B8E9BB201339AB2BB69E2
:1040C0009A86BB699B8D9BB2013B9BB2BA69191C56
:1040D0009185002B12D17B6904221A75BB693222AB
:1040E000002199541023FB181B880222134005D08D
:1040F000BB691B69BA69101C984708E007E0C04615
:104100003C0E0020053C00007B6904221A75122336
:10411000FB181B881022134010D07B6910221A75DF
:104120007B6910221A761023FB181B88102213407B
:1041300004D0BB69DB69BA69101C98471223FB18CD
:104140001B882022134010D07B6920221A757B69BE
:1041500020221A761023FB181B880822134004D053
:10416000BB699B69BA69101C98471223FB181B880E
:104170000822134010D07B6908221A757B69082237
:104180001A761023FB181B882022134004D0BB6929
:104190001B6ABA69101C9847BD4608B080BDC0466E
:1041A00080B500AF0020024B9847BD4680BDC04699
:1041B000DD41000080B500AF0120024B9847BD46AD
:1041C00080BDC046DD41000080B500AF0220024B3B
:1041D0009847BD4680BDC046DD41000080B586B031
:1041E00000AF021CFB1D1A70FB1D1A78174B9200C2
:1041F000D3583B613B691B68DA6A3B695B6B1A40C9
:104200003B699B6B1340FB6000237B6118E0104B04
:104210007A699200D358FA6813400ED03A697B69E4
:104220009B00D3185B683A69101C98473B691B6870
:10423000074A796989008A58DA627B6901337B61B0
:104240007B690B2BE3DDBD4606B080BD180E002058
:1042500058DC000080B500AF0020024B9847BD46F7
:1042600080BDC0469142000080B500AF0120024BE6
:104270009847BD4680BDC0469142000080B500AF62
:104280000220024B9847BD4680BDC04691420000C7
:1042900080B584B000AF021CFB1D1A70FB1D1A789C
:1042A000284B9200D358FB60FB681B689B7BDBB2FA
:1042B000FA68127E1340DAB2FB68597E0B23FB18B2
:1042C0000A401A700B23FB181B780122134008D0F8
:1042D000FB689B68FA68101C9847FB681B68012202
:1042E0009A730B23FB181B780222134008D0FB683B
:1042F000DB68FA68101C9847FB681B6802229A73F7
:104300000B23FB181B781022134008D0FB681B6995
:10431000FA68101C9847FB681B6810229A730B23DD
:10432000FB181B782022134008D0FB685B69FA68F1
:10433000101C9847FB681B6820229A73BD4604B086
:1043400080BDC046240E002080B586B000AFF86066
:10435000B9607A6000237B61FB68002B02D00123E7
:104360005B4215E010E00C4B1A680C4B1968BB68F7
:10437000081C191C9047BB680133BB607B69013383
:104380007B617B68013B7B607B68002BEBDC7B699E
:10439000181CBD4606B080BD300E0020380E00202F
:1043A00080B586B000AFF860B9607A6000237B61A9
:1043B000FB68012B08D0FB68022B05D0FB68032BA0
:1043C00002D001235B4219E014E00E4B1A680E4B39
:1043D0001868BB68591CB9601B78191C9047031EEC
:1043E00002DA01235B4209E07B6901337B617B6870
:1043F000013B7B607B68002BE7D17B69181CBD46C5
:1044000006B080BD340E0020380E002080B582B08A
:1044100000AF78607B6800221A70BD4602B080BD94
:1044200080B582B000AF021C3960FB1D1A70FB1D05
:104430001B78012B0AD0022B0FD0002B14D10E4B6E
:104440000D4A91693A680A439A610FE00A4B0A4A99
:10445000D1693A680A43DA6108E0074B064A116AF3
:104460003A680A431A6201E0172300E00023181C8F
:10447000BD4602B080BDC0460004004080B582B099
:1044800000AF78607B6880221A707B6800225A70C7
:104490007B6801229A707B680022DA70BD4602B008
:1044A00080BDC04680B584B000AF78607B681B6873
:1044B000FB60FB68DB695A1E9341DBB2181CBD46EA
:1044C00004B080BD80B582B000AF7860C0467B6824
:1044D000181C034B9847031EF9D1BD4602B080BD9E
:1044E000A5440000F0B58DB002AF786039607B68FC
:1044F0001B68BB617B681B68181CA94B9847031C91
:104500007B617B6914333B6100237B6200233B6248
:104510000E23FB1800221A801F23FB1800221A709A
:104520001E23FB1810221A703B681B8A8022D201BE
:1045300093421CD08022D201934206DC002B0DD086
:1045400080229201934224D035E0C022D2019342CE
:1045500028D080221202934212D02CE01F23FB1895
:1045600000221A701E23FB1810221A7023E01F234A
:10457000FB1800221A701E23FB1808221A701AE07A
:104580001F23FB1800221A701E23FB1803221A7027
:1045900011E01F23FB1801221A701E23FB181022A2
:1045A0001A7008E01F23FB1801221A701E23FB1843
:1045B00008221A70C0463B681A683B68DB681A43D9
:1045C0003B685B6913433A68128A13433A68127E68
:1045D000120213433A682621525C520713437B624E
:1045E0001D23FB1800221A703B685B68002B20D04B
:1045F00080225205934250D13B6827229B5C0122C6
:104600005340DBB2002B13D03B681D6A3B69DBB221
:10461000181C644B9847021C1D23FC180E23FB1822
:10462000281C111C1A1C604B9847031C237034E093
:1046300033E03B6827229B5C002B14D03B68186A50
:104640003B68996A1D23FC180E23FA181F23FB18D8
:104650001D781E23FB181B7800932B1C534DA84775
:10466000031C237018E03B681E6A3B69DBB2181C10
:104670004C4B9847011C1D23FC180E23FA181F23CE
:10468000FB181D781E23FB181B780093301C2B1C75
:10469000464DA847031C2370C0461D23FB181B78FA
:1046A000002B03D01D23FB181B7874E03B685B7E56
:1046B000002B03D03B689A7EBB699A737B68181CF9
:1046C0003B4B98470E23FB181A88BB699A813B68BD
:1046D0005B687A6A13437B623B6827229B5C0122FA
:1046E0005340DBB2002B03D07B6A042213437B626E
:1046F0003B689A7A3B68DB7A1343DBB21A1C3B684F
:104700005B7E9B0213433A68127F520213433A685E
:10471000527F120213433A682421525C520413431D
:104720003A682521525C120413433B623B681B89A3
:10473000FF2B0FD03B68DB7E002B04D07B6AA022CE
:10474000D20413437B623B681B891A1C3B6A1343E8
:104750003B6208E03B68DB7E002B04D07B6A802252
:10476000D20413437B623B682C229B5C002B03D05A
:104770007B6A802213437B627B68181C0C4B984732
:10478000BB693A6A5A607B68181C094B9847BB6939
:104790007A6A1A600023181CBD460BB0F0BDC046F3
:1047A000CD4E000061600000314A0000914A0000D7
:1047B000C544000090B593B000AFF860B9607A606E
:1047C0003B23FB1800221A70FB68BA681A60FB686A
:1047D0001B687B63FB681B68181C834B9847031C92
:1047E0003B633B6B0233FB623B6B1433BB627B6B03
:1047F0001B680122134001D00523F1E07B6B1B688D
:104800000222134001D01C23EAE0FB6A01229A40F5
:10481000131C0220191C754B98472423FB18181CE5
:10482000734B98477B682D229A5C2423FB181A70DF
:10483000BB6ADAB22423FB18101C191C6D4B984775
:10484000BB6ADBB2181C6C4B98477B682D229B5CC3
:10485000181C0021694B98477B68DA7AFB685A710B
:104860007B6824229A5CFB689A717B6825229A5C9B
:10487000FB68DA717B68DA7EFB681A727B681A7FE4
:10488000FB685A723B23FC18FA687B68101C191CE1
:104890005B4B9847031C23703B23FB181B78002BB2
:1048A00003D03B23FB181B789AE02023FB18181C2D
:1048B000544B98472023FB1800225A707B681A6BD0
:1048C0001023FB181A607B685A6B1023FB185A6080
:1048D0007B689A6B1023FB189A607B68DA6B102355
:1048E000FB18DA604723FB1800221A702CE04723DC
:1048F000FB181A781023FB189200D3583B643B6CCA
:10490000002B09D1BA684723FB181B78101C191C0F
:104910003D4B9847031C3B643B6C01330DD03B6C13
:10492000DAB22023FB181A703B6C1B0CDAB220237E
:10493000FB18101C191C354B98474723FB181A7895
:104940004723FB1801321A704723FB181B78032BEF
:10495000CDD90023FB6309E0FA68FB6B02339B00AF
:10496000D31800225A60FB6B0133FB63FB6B052BF2
:10497000F2D9FB6800229A62FB6800225A62FB6847
:104980000022DA85FB6800229A85FB68302200212C
:104990009954FB68312200219954FB68322200218E
:1049A0009954FB68332200219954FB681B68272225
:1049B000BC18181C0C4B9847031C23702723FB18AA
:1049C0001A78134B101C191C124B98472723FB18FD
:1049D0001A78114B9200F968D1503B23FB181B78D1
:1049E000181CBD4613B090BDCD4E00002144000000
:1049F0000D4400003D5F0000815F0000714C00002D
:104A0000E54400007D440000FD4C000021620000F0
:104A1000353E0000194F00003C0E002080B582B0EA
:104A200000AF78607B6800221A70BD4602B080BD7E
:104A300080B586B000AFF860B9607A601623FB18C5
:104A400000221A80BB685A08FB689A4201D24023B0
:104A500018E0FB685A000D4BB868111C9847031CFE
:104A60009AB21623FB18013A1A801623FB181B88EA
:104A7000FF2B01D9402305E07B681622BA18128863
:104A80001A800023181CBD4606B080BDCD6300000F
:104A9000F0B59DB000AFF864B9647A644322BA18E7
:104AA000137000230024BB65FC65002300243B65D4
:104AB0007C6500230024BB66FC66482340229446A4
:104AC000BC4463441A78FB6C5A43BB6C9A4201D3D2
:104AD0004023C2E04323FB181B78002B3DD1482321
:104AE00040229446BC4463441B78DBB2BB61002384
:104AF000FB61FB6C3B6100237B615A4CB869F9692F
:104B00003A697B69A047031C0C1C1B00FB60002357
:104B1000BB60BB6C3B6000237B60534CB868F9689A
:104B20003A687B68A047031C0C1CBB65FC65002130
:104B30000122BB6DFC6DC91AA2410B1C141C3B6504
:104B40007C653B6D1B0C7A6D16041E433B6D1D048A
:104B50003300BB660023FB6679E04323FB181B7818
:104B6000012B00D073E0272340229446BC446344C9
:104B700000221A704CE0BB6C3B6300237B63386BF4
:104B8000796B031C5B0F0A1CD200FA63FA6B1A43A1
:104B9000FA63031CDB00BB63FB6CBB620023FB629C
:104BA000482340229446BC4463441B78DBB23B62FA
:104BB00000237B622B4CB86AF96A3A6A7B6AA04789
:104BC000031C0C1C1A1C231C274CB86BF96BA04748
:104BD000031C0C1C1A1C272340218C46BC44634434
:104BE0001B78D31A3B663B6EDB083B663B6E1F4A65
:104BF000934200D814E0272340229446BC446344E7
:104C00001A78272340218C46BC44634401321A7031
:104C1000272340229446BC4463441B78072BAAD91F
:104C2000272340229446BC4463441B78082B01D1BF
:104C3000402312E0272340229446BC4463441B785F
:104C40005B031A1C3B6E1343BB660023FB66BB6E03
:104C5000FC6E9AB27B6C1A800023181CBD461DB0F6
:104C6000F0BDC04631650000F1640000FF1F000088
:104C700080B584B000AF021CFB1D1A70BB1D0A1C5E
:104C80001A701A4B1B7801225340DBB2002B03D160
:104C9000BB1D1B78002B1BD00C23FB18181C144BBE
:104CA00098470C23FB18FA1D12781A700C23FB1876
:104CB0001320191C0F4B984713200F4B98470B4B91
:104CC000FA1D12785A70094B01221A70002308E06D
:104CD000064B5B78FA1D12789A4201D1002300E05E
:104CE0001D23181CBD4604B080BDC046540D0020D5
:104CF0001D4A00003D5F0000815F000080B582B06A
:104D000000AF78600A1CFB1C1A707B684D4A934206
:104D10003FD04C4A934206D84B4A93420FD04B4A5D
:104D2000934221D089E04A4A934200D15BE0494A4C
:104D3000934200D16CE0484A93423FD07DE0FB1C97
:104D40001B78012B0AD002DC002B05D075E0022B6A
:104D500006D0032B06D070E0404B6FE0404B6DE077
:104D6000404B6BE0404B69E0FB1C1B78012B0AD0E9
:104D700002DC002B05D060E0022B06D0032B06D00E
:104D80005BE003235AE0394B58E0394B56E0394B8E
:104D900054E0FB1C1B78012B0AD002DC002B05D051
:104DA0004BE0022B06D0032B06D046E0324B45E009
:104DB000324B43E0324B41E0324B3FE0FB1C1B786F
:104DC000012B0AD002DC002B05D036E0022B06D0E6
:104DD000032B06D031E02C4B30E02C4B2EE02C4B3B
:104DE0002CE02C4B2AE0FB1C1B78012B0AD002DCA8
:104DF000002B05D021E0022B06D0032B06D01CE0AF
:104E0000254B1BE0254B19E0254B17E0254B15E002
:104E1000FB1C1B78012B0AD002DC002B05D00CE018
:104E2000022B06D0032B06D007E01F4B06E01F4BDA
:104E300004E01F4B02E01F4B00E00023181CBD469E
:104E400002B080BD0010004200080042000C004289
:104E500000180042001C004200140042030004003D
:104E60000300050003000600030007000300010023
:104E700003001E0003001F000300080003000900D8
:104E800003000A0003000B000300100003001100E0
:104E9000030012000300130003000C0003000D00C8
:104EA00003000E0003000F000300160003001700AC
:104EB000030018000300190080B582B000AF021C87
:104EC000FB1D1A70BD4602B080BDC04690B58BB0C8
:104ED00000AF78600C23FB180E4A13CA13C313CA21
:104EE00013C300237B620DE07B680C22BA18796A39
:104EF00089008A58934202D17B6ADBB206E07B6A62
:104F000001337B627B6A052BEED90023181CBD465A
:104F10000BB090BD88DC000080B584B000AF021CEF
:104F20003960FB1D1A70134B1B7801225340DBB212
:104F3000002B15D00023FB600CE00F4BFA689200A9
:104F40000E49D1500E4BFA6892000021D150FB68F7
:104F50000133FB60FB68052BEFD9064B01221A7069
:104F6000FB1D1A78044B92003968D150BD4604B03D
:104F700080BDC046560D0020580D0020B94E0000DF
:104F80003C0E002090B585B000AF78600823FA1879
:104F90000E4B111C1A1C0623081C111C1A1C0C4B4E
:104FA00098470F23FC187B68181C0A4B9847031C72
:104FB00023700F23FB181B780822BA18D35CDBB2CE
:104FC0005BB2181CBD4605B090BDC046A0DC000019
:104FD000816F0000CD4E000080B500AF024B1B6812
:104FE00000209847BD4680BD580D002080B500AF19
:104FF000024B5B6801209847BD4680BD580D0020DC
:1050000080B500AF024B9B6802209847BD4680BD2B
:10501000580D002080B500AF024BDB680320984795
:10502000BD4680BD580D002080B500AF024B1B6906
:1050300004209847BD4680BD580D002080B500AFC4
:10504000024B5B6905209847BD4680BD580D002086
:1050500080B584B000AF021CFB1D1A700F23FB1833
:10506000FA1D127852091A700F23FB181B78002BB7
:105070000CD1094BBB600F23FB181B789B0010223F
:105080009446BC446344083B1B6800E00023181CA2
:10509000BD4604B080BDC0460018004080B584B055
:1050A00000AF021CFB1D1A70FB1D1B78181C0B4B5C
:1050B0009847031CFB60FB1D1B781F221340012235
:1050C0009A40131CBB60FB681B69BA6813405A1EE8
:1050D0009341DBB2181CBD4604B080BD51500000A6
:1050E00080B584B000AF021CFB1D1A70FB1D1B783D
:1050F000181C094B9847031CFB60FB1D1B781F22E3
:10510000134001229A40131CBB60FB68BA681A6105
:10511000BD4604B080BDC0465150000080B582B08D
:1051200000AFFB1D00221A701DE0FB1D1B78181C30
:10513000104B9847031E11D0FB1D1B78181C0E4BFB
:105140009847FB1D1A780D4B9200D358002B05D0C1
:10515000FB1D1A78094B9200D3589847FB1D1A780B
:10516000FB1D01321A70FB1D1B780F2BDDD9BD46CC
:1051700002B080BD9D500000E1500000D80D00201D
:1051800080B582B000AF0F4B1B68002B12D1EFF33C
:1051900010837B607B68002B09D172B6BFF35F8FF1
:1051A000094B00221A70094B01221A7002E0074BCA
:1051B00000221A70034B1B685A1C024B1A60BD4632
:1051C00002B080BD700D00200C000020740D002086
:1051D00080B500AF0A4B1B685A1E094B1A60084B7A
:1051E0001B68002B0AD1074B1B78DBB2002B05D0C4
:1051F000054B01221A70BFF35F8F62B6BD4680BDBA
:10520000700D0020740D00200C00002080B584B0CB
:1052100000AF021CFB1D1A700F23FB18FA1D127839
:10522000D2091A700E23FB18FA1D127852091A704F
:105230000D4BBB600F23FB181B78002B0FD10F23E6
:10524000FB181B789B0010229446BC446344083B27
:105250001A680E23FB181B78DB01D31800E000232B
:10526000181CBD4604B080BD0044004180B582B02A
:1052700000AF021CFB1D1A70FB1D1B78181C034B92
:105280009847031C181CBD4602B080BD0D5200009B
:1052900080B582B000AF78607B6800221A707B68AE
:1052A00001225A707B6800229A70BD4602B080BD10
:1052B00080B584B000AF021CFB1D1A70BB1D0A1C18
:1052C0001A70FB1D1B78181C0C4B9847031CFB60C5
:1052D000FB1D1B781F22134001229A40131CBB6048
:1052E000BB1D1B78002B03D0FB68BA689A6102E0F3
:1052F000FB68BA685A61BD4604B080BD6D520000BB
:1053000080B582B000AF3B1D181C0E4B98473B1D6B
:1053100001221A703B1D1120191C0B4B98471120BC
:1053200000210A4B98473B1D00221A703B1D0122A9
:105330005A703B1D0F20191C034B9847BD4602B005
:1053400080BDC0469152000079530000B152000068
:1053500080B582B000AF78607B6880221A707B686D
:1053600000225A707B6801229A707B680022DA70F2
:10537000BD4602B080BDC04680B584B000AF021CFF
:105380003960FB1D1A700C23FB18181C0F4B984733
:105390000C23FB1880221A703B681A780C23FB1828
:1053A0005A703B685A780C23FB189A703B689A78BD
:1053B0000C23FB18DA70FB1D1A780C23FB18101C49
:1053C000191C034B9847BD4604B080BD51530000E3
:1053D0002162000080B582B000AF78607B68012256
:1053E0005A607B6800225A707B6806221A707B68BC
:1053F00000221A727B6800225A72BD4602B080BD3C
:1054000080B582B000AF78607B6800221A70BD461C
:1054100002B080BD80B582B000AF78607B680122A9
:105420005A707B6801229A707B680022DA707B6870
:1054300001221A717B6807221A707B6800225A7158
:10544000BD4602B080BDC04680B582B000AF786076
:105450007B6803221A707B6800225A707B680122E5
:105460009A70BD4602B080BD80B582B000AF786052
:105470007B6800221A707B6800225A807B680022B9
:105480009A807B6800229A717B680022DA717B68BF
:1054900001225A707B6807221A727B683F225A8168
:1054A0007B6801221A737B680122DA817B680622FD
:1054B0001A82BD4602B080BD80B582B000AF021C2A
:1054C000FB1D1A70FB1D1B78002B08D0094A094BE5
:1054D0001B78DBB204210B43DBB2137007E0054AF3
:1054E000044B1B78DBB204218B43DBB21370BD4647
:1054F00002B080BD0004004080B582B000AF021C45
:10550000FB1D1A70034AFB1D1B781372BD4602B0C7
:1055100080BDC0460004004080B582B000AF021CD0
:10552000FB1D1A70BB1D0A1C1A70FB1D1B78012B7A
:1055300008D0022B0BD0002B0ED10B4ABB1D1B78C1
:1055400053720BE0084ABB1D1B78937206E0064AB3
:10555000BB1D1B78D37201E0172300E00023181C49
:10556000BD4602B080BDC0460004004080B582B098
:1055700000AF021CFB1D1A70084BFA1D12780F2198
:105580000A40D2B20F210A40520059681E208143BE
:105590000A435A60BD4602B080BDC046004000418B
:1055A00080B500AFC046034BDB6810221340FAD031
:1055B000BD4680BD0008004080B500AF0C4A0D4BD1
:1055C0001B689BB280218B439BB293840A4B984704
:1055D000074A084B9B68D362054A064B5B68936297
:1055E000034A044B1B689BB29384BD4680BDC046F2
:1055F00000080040780D0020A155000080B582B061
:1056000000AF021CFB1D1A70FB1D1B78082B42D833
:105610009A00234BD3181B689F46224B1B693BE023
:10562000214B1B6A1B0A1A1C03231340DBB21A1CF2
:105630001E4BD34030E080231B022DE080231B0251
:105640002AE0184B5B6927E0164B1B6802221340C7
:1056500001D1002320E0164B9847124B1B6804220F
:10566000134009D00020134B9847021C0D4B9B6838
:105670001B041B0C53430FE00F4B0DE00A4A502351
:10568000D35CDBB21A1C0423134001D1002303E0D6
:10569000044BDB6800E00023181CBD4602B080BD4F
:1056A000A8DC0000780D00200008004000127A00FD
:1056B000A155000061600000006CDC0280B584B080
:1056C00000AF78601A4B1B6AFB607B681B781A1C62
:1056D00003231340DAB20D23FB1803210A40101CE8
:1056E0001A7803218A43111C021C0A431A707B6832
:1056F0009A780C23FB18D0011A787F210A40111CDC
:10570000021C0A431A707B685A780C23FB1801218B
:105710000A4090011A7840218A43111C021C0A4356
:105720001A70034BFA681A62BD4604B080BDC046C9
:105730000008004080B584B000AF78602F4B9B69B3
:10574000FB607B685A780C23FB1801210A40D000CB
:105750001A7808218A43111C021C0A431A707B68BC
:105760009A780C23FB1801210A4090001A78042132
:105770008A43111C021C0A431A707B681B781A1C8E
:1057800007231340DAB20D23FB1807210A40101C2F
:105790001A7807218A43111C021C0A431A707B687D
:1057A0001A790C23FB18D0011A787F210A40111CAA
:1057B000021C0A431A707B68DA780C23FB1801215B
:1057C0000A4090011A7840218A43111C021C0A43A6
:1057D0001A707B685A790D23FB1801210A401001C9
:1057E0001A7810218A43111C021C0A431A70034BB9
:1057F000FA689A61BD4604B080BDC046000800400A
:1058000080B582B000AF78607B681B7A9B021B0476
:105810001A0C7B685B899B059B0D1A43224B5A60CF
:105820007B689A797B68DB791343DBB21A1C7B684F
:105830005B8813437A6892881A437B685B78DB0144
:105840001A43194B1A607B681B78042B16D17B68AE
:105850001B7B9B061A1C7B68DB891B04191C134BE2
:105860000B4013437A68128A1A430F4B9A600E4B0F
:105870001B687A6812781A430B4B1A607B681B7896
:10588000202B0ED17B681B8A1A1C074B9A60064B93
:105890001B687A68127813438022D2001A43024BA5
:1058A0001A60BD4602B080BD780D00200000FF03E5
:1058B00080B582B000AF021CFB1D1A70FB1D1B7867
:1058C000082B3BD89A00214BD3181B689F46204BCE
:1058D0001F4A126A02210A431A62002331E01C4B5C
:1058E0001B4A926902210A439A6129E0184A184B1F
:1058F0001B8A9BB202210B439BB2138220E0144A05
:10590000134B9B8A9BB202210B439BB2938217E0FD
:10591000104B1B6802221A430E4B1A600E4B98471D
:105920000EE00B4A0A494423CB5CDBB202210B4355
:10593000D9B24423D15403E0002302E0172300E04E
:105940000023181CBD4602B080BDC046CCDC000060
:1059500000080040780D0020B955000080B584B0E3
:1059600000AF021CFB1D1A70FB1D1B78082B21D8F1
:105970009A00174BD3181B689F460823FB601BE057
:105980000423FB6018E00123FB6015E00223FB60A9
:1059900012E01023FB600FE00E4A5023D35CDBB211
:1059A0001A1C03231340033B5A425341DBB20AE063
:1059B000012308E0002306E0064BDB68FA68134089
:1059C0005A1E9341DBB2181CBD4604B080BDC046D0
:1059D000F0DC00000008004080B5A4B000AF754BBB
:1059E000C222D2009A600220734B9847714B734ACF
:1059F00012689209D2B2111C7F220A40D2B27F21D2
:105A00000A40120499696E4801400A439A6188234A
:105A1000FB18181C6B4B98478823FB1807221A7039
:105A20008823FB1801225A708823FB1801229A70E0
:105A30008823FB1801221A718823FB180022DA70D0
:105A40008823FB18181C604B984704205F4B98472D
:105A50007423FB18181C5E4B98477423FB18042210
:105A60001A707423FB1800225A707423FB1800224A
:105A70005A807423FB180022DA717423FB18002269
:105A80009A717423FB1800229A807423FB18B722A2
:105A9000D2001A827423FB1807221A737423FB188E
:105AA0003F22DA817423FB18181C4A4B9847702355
:105AB000FB18181C484B98477023FB1800221A70DB
:105AC0007023FB1801229A707023FB1801225A7070
:105AD0007023FB18181C414B984706203B4B9847F6
