:100000002020002015010000110100001101000056
:1000100000000000000000000000000000000000E0
:1000200000000000000000000000000011010000BE
:10003000000000000000000011010000110100009C
:100040001101000011010000110100001101000068
:100050001101000011010000110100001101000058
:100060001101000011010000110100001101000048
:100070001101000011010000110100001101000038
:100080001101000011010000110100001101000028
:100090001101000011010000110100001101000018
:1000A0001101000011010000110100001101000008
:1000B00010B5064C2378002B07D1054B002B02D03E
:1000C000044800E000BF0123237010BD00000020A1
:1000D000000000007C02000008B5084B002B03D094
:1000E0000748084900E000BF07480368002B00D11B
:1000F00008BD064B002BFBD09847F9E70000000035
:100100007C020000040000207C02000000000000CF
:10011000FEE7C04670B52E4B2E4A9A4203D02E4BB6
:100120002B4A9A4204D32D4B2D4A9A4210D31EE0FB
:100130002C4A294B03339B1A9B0801339B00002256
:10014000234824498C58845004329A42FAD1EAE771
:10015000254A224B03339B1A9B0801339B00002244
:100160001F4800211418216004329A42FAD11F4A14
:10017000FF211F4B8B439360FD3990235B001D4A89
:10018000D1501D48C3780324A34302221343C370F4
:10019000C3780C26B34308210B43C370174B987BDD
:1001A0003025A843051C202028439873987BB04332
:1001B00001439973997BA1430A439A73104A51688A
:1001C00080230B4353600F4B98470F4B9847FEE734
:1001D000000000207C020000000000201C00002025
:1001E00000000020040000200400002000ED00E0DA
:1001F0000000000000700041005000410048004134
:1002000000400041110200000D020000FEE7C04660
:100210000E4B70B500251E1C0D4CE41AA410A5420F
:1002200004D0AB00F35898470135F8E700F016F812
:10023000084B00251E1C084CE41AA410A54204D04B
:10024000AB00F35898470135F8E770BD680200002D
:1002500068020000680200006C020000F8B5C046A9
:10026000F8BC08BC9E467047D9000000F8B5C046EF
:0C027000F8BC08BC9E467047B1000000BE
:0400000300000115E3
:00000001FF
